:020000040800F2
:1000000000500020FD020008C9020008CB020008D1
:10001000CD020008CF020008D10200080000000055
:10002000000000000000000000000000D3020008F3
:10003000D502000800000000D7020008D90200081D
:100040004503000845030008450300084503000870
:100050004503000845030008450300084503000860
:100060004503000845030008450300084503000850
:100070004503000845030008450300084503000840
:100080004503000845030008450300084503000830
:100090004503000845030008450300084503000820
:1000A0004503000845030008450300084503000810
:1000B0004503000845030008450300084503000800
:1000C00045030008450300084503000845030008F0
:1000D00045030008450300084503000845030008E0
:1000E0004503000845030008450300080000000020
:1000F0000000000000000000000000000000000000
:0C01000000000000000000005FF808F1A3
:10010C000348044B834202D0034B03B1184770479A
:10011C0004000020040000200000000005480649EF
:10012C000B1AD90F01EBA301491002D0034B03B1F9
:10013C001847704704000020040000200000000055
:10014C0010B5064C237843B9FFF7DAFF044B13B113
:10015C000448AFF300800123237010BD040000207D
:10016C00000000004803000808B5044B1BB104490B
:10017C000448AFF30080BDE80840CFE70000000062
:10018C00080000204803000870B50D4E0D4D761B7D
:10019C00B61006D0002455F8043B01349847A6420B
:1001AC00F9D1094E094D00F0C9F8761BB61006D0EE
:1001BC00002455F8043B01349847A642F9D170BD90
:1001CC006003000860030008640300086003000873
:1001DC0008B500F045F800F01BF801220D210B4882
:1001EC0000F046F8094C01220D21204600F02BF8B6
:1001FC004FF4FA7000F018F800220D21204600F0A0
:10020C0022F8C82000F010F8ECE700BF0010014005
:10021C004FF0E02341F63F725A6100229A611A694D
:10022C0042F005021A617047002209E04FF0E0230A
:10023C001B6913F4803FF9D04FF0E0231B690132A6
:10024C008242F3D37047012A05D01031012303FAFF
:10025C0001F1016170474FF40053036170470000D6
:10026C00024A936943F010039361704700100240F7
:10027C0001F007039B00012A10D0042207290FD894
:10028C0001684FF00F0C0CFA03FC21EA0C01016021
:10029C00016802FA03F30B43036070470222EDE797
:1002AC0041684FF00F0C0CFA03FC21EA0C01416081
:1002BC00416802FA03F30B4343607047FEE7FEE725
:1002CC00FEE7FEE7FEE770477047704708B500F0A1
:1002DC0001F808BD034A1168034B1B780B441360EB
:1002EC00704700BF20000020000000207047000075
:1002FC00FFF7FCFF0B480C490C4A002302E0D458D2
:10030C00C4500433C4188C42F9D3094A094C002355
:10031C0001E013600432A242FBD3FFF735FFFFF775
:10032C0057FF7047000000200400002068030008FD
:10033C000400002024000020FEE70000F8B500BFF8
:10034C00F8BC08BC9E467047F8B500BFF8BC08BCAA
:04035C009E46704702
:04036000750100081B
:040364004D0100083F
:040368000100000090
:04000005080002FDF0
:00000001FF
